:1000000012C02CC033C104C1B7C028C027C026C04D
:1000100025C024C023C022C021C020C03EC11EC0B4
:100020001DC01CC01BC011241FBECFE5D4E0DEBF25
:10003000CDBF10E0A0E6B0E0E8ECF5E002C005902E
:100040000D92A036B107D9F710E0A0E6B0E001C0EC
:100050001D92AB37B107E1F728D0B4C2D1CF809160
:100060006200909163000196909363008093620018
:100070008F3F910534F08FEF90E090936300809371
:1000800062000895809160009091610001969093C4
:100090006100809360008F3F910534F08FEF90E016
:1000A000909361008093600008951F93CF93DF9336
:1000B00021D181E0E1D110E086E690E07BD11F5FA5
:1000C0001F3FD1F786E690E075D180916600909150
:1000D00067002091680030916900821B930B909318
:1000E0006500809364008FE890E0909361008093B6
:1000F00060009093630080936200CFE8D0E086E6D2
:1001000090E058D12091660030916700809168009E
:1001100090916900281B390B8091640090916500D3
:10012000281B390B2530310534F081E092D18CE366
:100130006CE3BED113C02C5F3F4F74F482E089D1D1
:1001400080E060E0B5D110926100109260001092E2
:100150006300109262000AC080E07BD1D0936100FE
:10016000C0936000D0936300C093620080916200EE
:1001700060916000C2D1C3CF1F920F920FB60F9251
:1001800011242F933F934F935F936F937F938F939C
:100190009F93AF93BF93EF93FF9384B58B5D84BD23
:1001A000809174008F5F8093740080917400882325
:1001B00099F48091770090917800A0917900B091A6
:1001C0007A000196A11DB11D80937700909378006D
:1001D000A0937900B0937A00809175009091760099
:1001E000892B29F0E0917500F09176000995FF9137
:1001F000EF91BF91AF919F918F917F916F915F919F
:100200004F913F912F910F900FBE0F901F90189517
:100210001F920F920FB60F9211248F939F93AF935B
:10022000BF93809174008F5F8093740080917400FD
:10023000882399F48091770090917800A0917900BB
:10024000B0917A000196A11DB11D80937700909323
:100250007800A0937900B0937A00BF91AF919F91FD
:100260008F910F900FBE0F901F9018951F920F92B5
:100270000FB60F9211248F939F9381E090E090939B
:100280006B0080936A008BB78F778BBF9F918F91A4
:100290000F900FBE0F901F9018951F920F920FB6E0
:1002A0000F9211242F933F934F935F936F937F93FC
:1002B0008F939F93AF93BF93EF93FF9380916C00C5
:1002C00090916D00892B29F0E0916C00F0916D0008
:1002D0000995FF91EF91BF91AF919F918F917F9180
:1002E0006F915F914F913F912F910F900FBE0F90A3
:1002F0001F90189589E785BD89B7806489BF81E91A
:1003000083BD10BC8FEC89B988E18AB996E890BDAD
:100310008FE387BB84EF81BB81EA8FBD82E08EBD16
:1003200096B9979880E0A8D081E061E0AED080E0F7
:1003300060E0ABD081E08DD080E260E2E5D080E08B
:1003400060E0DBD010926F0010926E001092760089
:100350001092750010926D0010926C0078940895C0
:10036000EF92FF920F931F938C01E0906E00F0903C
:100370006F0010926F0010926E0084B38C7F84BB6C
:10038000979A60E070E081E090E050D0F8019183AE
:10039000808360E070E080E090E048D0F8019383D3
:1003A0008283F0926F00E0926E001F910F91FF9098
:1003B000EF900895EF92FF920F931F938C01E090BE
:1003C0006E00F0906F0010926F0010926E0060E06F
:1003D00070E083E090E02AD0F8019183808360E0B0
:1003E00070E082E090E022D0F80193838283F09263
:1003F0006F00E0926E001F910F91FF90EF900895B3
:100400000F931F9300916E0010916F0010926F0078
:1004100010926E006AE070E085E090E007D01093E3
:100420006F0000936E001F910F9108958530910524
:1004300011F485EC01C0806487B96115710511F074
:10044000862F85D0369A349BFECF349A84B195B1ED
:100450000895882311F4C09803C0813019F4C09A1C
:1004600092980895833019F4C09A929A0895823030
:1004700011F4C098929A089592B38295880F880FCC
:10048000807C9F7B982B92BB0895982F882311F432
:10049000662349F0979884B3836084BB85B38360F7
:1004A00085BB992309F4A998662309F4A8980895AF
:1004B0000F931F93082F162F87FF03C0019580E12C
:1004C00005C0882311F480E001C080E217FF03C05B
:1004D000119560E105C0112311F460E001C060E2F4
:1004E00013D0612F772767FD7095660F771F802FD8
:1004F000880F03D01F910F91089590E09BBD8ABD96
:1005000070E079BD68BD089592B39F7C982B92BB33
:1005100088B38F7C862B88BB08956091770070919B
:1005200078008091790090917A0020917400982F42
:10053000872F762F6627620F711D811D911D24E282
:1005400030E040E050E01CD0CA01B901089590911C
:100550007400980F809174008917E1F70895BC0129
:1005600040E050E009C0209174002C5D809174003F
:100570008217E1F74F5F5F4F46175707A4F30895BF
:10058000A1E21A2EAA1BBB1BFD010DC0AA1FBB1F97
:10059000EE1FFF1FA217B307E407F50720F0A21B09
:1005A000B30BE40BF50B661F771F881F991F1A9476
:1005B00069F760957095809590959B01AC01BD01A0
:0805C000CF010895F894FFCF6C
:00000001FF
